{
	"contracts/openzeppelin/utils/StorageSlot.sol": {
		"SSTest": {
			"abi": [
				{
					"inputs": [],
					"name": "A",
					"outputs": [
						{
							"internalType": "uint256",
							"name": "",
							"type": "uint256"
						}
					],
					"stateMutability": "view",
					"type": "function"
				},
				{
					"inputs": [],
					"name": "B",
					"outputs": [
						{
							"internalType": "address",
							"name": "",
							"type": "address"
						}
					],
					"stateMutability": "view",
					"type": "function"
				},
				{
					"inputs": [],
					"name": "getA",
					"outputs": [
						{
							"internalType": "uint256",
							"name": "",
							"type": "uint256"
						}
					],
					"stateMutability": "view",
					"type": "function"
				},
				{
					"inputs": [],
					"name": "getB",
					"outputs": [
						{
							"internalType": "address",
							"name": "",
							"type": "address"
						}
					],
					"stateMutability": "view",
					"type": "function"
				},
				{
					"inputs": [
						{
							"internalType": "uint256",
							"name": "a",
							"type": "uint256"
						}
					],
					"name": "setA",
					"outputs": [],
					"stateMutability": "nonpayable",
					"type": "function"
				},
				{
					"inputs": [],
					"name": "setB",
					"outputs": [],
					"stateMutability": "nonpayable",
					"type": "function"
				}
			],
			"devdoc": {
				"kind": "dev",
				"methods": {},
				"version": 1
			},
			"evm": {
				"assembly": "    /* \"contracts/openzeppelin/utils/StorageSlot.sol\":1347:1924  contract SSTest {... */\n  mstore(0x40, 0x80)\n  callvalue\n  dup1\n  iszero\n  tag_1\n  jumpi\n  0x00\n  dup1\n  revert\ntag_1:\n  pop\n  dataSize(sub_0)\n  dup1\n  dataOffset(sub_0)\n  0x00\n  codecopy\n  0x00\n  return\nstop\n\nsub_0: assembly {\n        /* \"contracts/openzeppelin/utils/StorageSlot.sol\":1347:1924  contract SSTest {... */\n      mstore(0x40, 0x80)\n      callvalue\n      dup1\n      iszero\n      tag_1\n      jumpi\n      0x00\n      dup1\n      revert\n    tag_1:\n      pop\n      jumpi(tag_2, lt(calldatasize, 0x04))\n      shr(0xe0, calldataload(0x00))\n      dup1\n      0x32e7c5bf\n      eq\n      tag_3\n      jumpi\n      dup1\n      0xa1c51915\n      eq\n      tag_4\n      jumpi\n      dup1\n      0xd1f4ba82\n      eq\n      tag_5\n      jumpi\n      dup1\n      0xd46300fd\n      eq\n      tag_6\n      jumpi\n      dup1\n      0xee919d50\n      eq\n      tag_7\n      jumpi\n      dup1\n      0xf446c1d0\n      eq\n      tag_8\n      jumpi\n    tag_2:\n      0x00\n      dup1\n      revert\n        /* \"contracts/openzeppelin/utils/StorageSlot.sol\":1427:1443  address public B */\n    tag_3:\n      tag_9\n      tag_10\n      jump\t// in\n    tag_9:\n      mload(0x40)\n      tag_11\n      swap2\n      swap1\n      tag_12\n      jump\t// in\n    tag_11:\n      mload(0x40)\n      dup1\n      swap2\n      sub\n      swap1\n      return\n        /* \"contracts/openzeppelin/utils/StorageSlot.sol\":1747:1920  function getB() public view returns(address){... */\n    tag_4:\n      tag_13\n      tag_14\n      jump\t// in\n    tag_13:\n      mload(0x40)\n      tag_15\n      swap2\n      swap1\n      tag_12\n      jump\t// in\n    tag_15:\n      mload(0x40)\n      dup1\n      swap2\n      sub\n      swap1\n      return\n        /* \"contracts/openzeppelin/utils/StorageSlot.sol\":1509:1561  function setB()public{... */\n    tag_5:\n      tag_16\n      tag_17\n      jump\t// in\n    tag_16:\n      stop\n        /* \"contracts/openzeppelin/utils/StorageSlot.sol\":1567:1740  function getA() public view returns(uint256){... */\n    tag_6:\n      tag_18\n      tag_19\n      jump\t// in\n    tag_18:\n      mload(0x40)\n      tag_20\n      swap2\n      swap1\n      tag_21\n      jump\t// in\n    tag_20:\n      mload(0x40)\n      dup1\n      swap2\n      sub\n      swap1\n      return\n        /* \"contracts/openzeppelin/utils/StorageSlot.sol\":1450:1503  function setA(uint256 a) public{... */\n    tag_7:\n      tag_22\n      0x04\n      dup1\n      calldatasize\n      sub\n      dup2\n      add\n      swap1\n      tag_23\n      swap2\n      swap1\n      tag_24\n      jump\t// in\n    tag_23:\n      tag_25\n      jump\t// in\n    tag_22:\n      stop\n        /* \"contracts/openzeppelin/utils/StorageSlot.sol\":1405:1421  uint256 public A */\n    tag_8:\n      tag_26\n      tag_27\n      jump\t// in\n    tag_26:\n      mload(0x40)\n      tag_28\n      swap2\n      swap1\n      tag_21\n      jump\t// in\n    tag_28:\n      mload(0x40)\n      dup1\n      swap2\n      sub\n      swap1\n      return\n        /* \"contracts/openzeppelin/utils/StorageSlot.sol\":1427:1443  address public B */\n    tag_10:\n      0x01\n      0x00\n      swap1\n      sload\n      swap1\n      0x0100\n      exp\n      swap1\n      div\n      0xffffffffffffffffffffffffffffffffffffffff\n      and\n      dup2\n      jump\t// out\n        /* \"contracts/openzeppelin/utils/StorageSlot.sol\":1747:1920  function getB() public view returns(address){... */\n    tag_14:\n        /* \"contracts/openzeppelin/utils/StorageSlot.sol\":1783:1790  address */\n      0x00\n        /* \"contracts/openzeppelin/utils/StorageSlot.sol\":1801:1813  bytes32 slot */\n      dup1\n        /* \"contracts/openzeppelin/utils/StorageSlot.sol\":1854:1860  B.slot */\n      0x01\n        /* \"contracts/openzeppelin/utils/StorageSlot.sol\":1846:1860  slot := B.slot */\n      swap1\n      pop\n        /* \"contracts/openzeppelin/utils/StorageSlot.sol\":1886:1907  slot.getAddressSlot() */\n      tag_30\n        /* \"contracts/openzeppelin/utils/StorageSlot.sol\":1886:1890  slot */\n      dup2\n        /* \"contracts/openzeppelin/utils/StorageSlot.sol\":1886:1905  slot.getAddressSlot */\n      tag_31\n        /* \"contracts/openzeppelin/utils/StorageSlot.sol\":1886:1907  slot.getAddressSlot() */\n      jump\t// in\n    tag_30:\n        /* \"contracts/openzeppelin/utils/StorageSlot.sol\":1886:1913  slot.getAddressSlot().value */\n      0x00\n      add\n      0x00\n      swap1\n      sload\n      swap1\n      0x0100\n      exp\n      swap1\n      div\n      0xffffffffffffffffffffffffffffffffffffffff\n      and\n        /* \"contracts/openzeppelin/utils/StorageSlot.sol\":1879:1913  return slot.getAddressSlot().value */\n      swap2\n      pop\n      pop\n        /* \"contracts/openzeppelin/utils/StorageSlot.sol\":1747:1920  function getB() public view returns(address){... */\n      swap1\n      jump\t// out\n        /* \"contracts/openzeppelin/utils/StorageSlot.sol\":1509:1561  function setB()public{... */\n    tag_17:\n        /* \"contracts/openzeppelin/utils/StorageSlot.sol\":1544:1554  msg.sender */\n      caller\n        /* \"contracts/openzeppelin/utils/StorageSlot.sol\":1540:1541  B */\n      0x01\n      0x00\n        /* \"contracts/openzeppelin/utils/StorageSlot.sol\":1540:1554  B = msg.sender */\n      0x0100\n      exp\n      dup2\n      sload\n      dup2\n      0xffffffffffffffffffffffffffffffffffffffff\n      mul\n      not\n      and\n      swap1\n      dup4\n      0xffffffffffffffffffffffffffffffffffffffff\n      and\n      mul\n      or\n      swap1\n      sstore\n      pop\n        /* \"contracts/openzeppelin/utils/StorageSlot.sol\":1509:1561  function setB()public{... */\n      jump\t// out\n        /* \"contracts/openzeppelin/utils/StorageSlot.sol\":1567:1740  function getA() public view returns(uint256){... */\n    tag_19:\n        /* \"contracts/openzeppelin/utils/StorageSlot.sol\":1603:1610  uint256 */\n      0x00\n        /* \"contracts/openzeppelin/utils/StorageSlot.sol\":1621:1633  bytes32 slot */\n      dup1\n        /* \"contracts/openzeppelin/utils/StorageSlot.sol\":1674:1680  A.slot */\n      0x00\n        /* \"contracts/openzeppelin/utils/StorageSlot.sol\":1666:1680  slot := A.slot */\n      swap1\n      pop\n        /* \"contracts/openzeppelin/utils/StorageSlot.sol\":1706:1727  slot.getUint256Slot() */\n      tag_34\n        /* \"contracts/openzeppelin/utils/StorageSlot.sol\":1706:1710  slot */\n      dup2\n        /* \"contracts/openzeppelin/utils/StorageSlot.sol\":1706:1725  slot.getUint256Slot */\n      tag_35\n        /* \"contracts/openzeppelin/utils/StorageSlot.sol\":1706:1727  slot.getUint256Slot() */\n      jump\t// in\n    tag_34:\n        /* \"contracts/openzeppelin/utils/StorageSlot.sol\":1706:1733  slot.getUint256Slot().value */\n      0x00\n      add\n      sload\n        /* \"contracts/openzeppelin/utils/StorageSlot.sol\":1699:1733  return slot.getUint256Slot().value */\n      swap2\n      pop\n      pop\n        /* \"contracts/openzeppelin/utils/StorageSlot.sol\":1567:1740  function getA() public view returns(uint256){... */\n      swap1\n      jump\t// out\n        /* \"contracts/openzeppelin/utils/StorageSlot.sol\":1450:1503  function setA(uint256 a) public{... */\n    tag_25:\n        /* \"contracts/openzeppelin/utils/StorageSlot.sol\":1495:1496  a */\n      dup1\n        /* \"contracts/openzeppelin/utils/StorageSlot.sol\":1491:1492  A */\n      0x00\n        /* \"contracts/openzeppelin/utils/StorageSlot.sol\":1491:1496  A = a */\n      dup2\n      swap1\n      sstore\n      pop\n        /* \"contracts/openzeppelin/utils/StorageSlot.sol\":1450:1503  function setA(uint256 a) public{... */\n      pop\n      jump\t// out\n        /* \"contracts/openzeppelin/utils/StorageSlot.sol\":1405:1421  uint256 public A */\n    tag_27:\n      sload(0x00)\n      dup2\n      jump\t// out\n        /* \"contracts/openzeppelin/utils/StorageSlot.sol\":335:479  function getAddressSlot(bytes32 slot) internal pure returns(AddressSlot storage r){... */\n    tag_31:\n        /* \"contracts/openzeppelin/utils/StorageSlot.sol\":395:416  AddressSlot storage r */\n      0x00\n        /* \"contracts/openzeppelin/utils/StorageSlot.sol\":459:463  slot */\n      dup2\n        /* \"contracts/openzeppelin/utils/StorageSlot.sol\":449:463  r.slot := slot */\n      swap1\n      pop\n        /* \"contracts/openzeppelin/utils/StorageSlot.sol\":335:479  function getAddressSlot(bytes32 slot) internal pure returns(AddressSlot storage r){... */\n      swap2\n      swap1\n      pop\n      jump\t// out\n        /* \"contracts/openzeppelin/utils/StorageSlot.sol\":1153:1343  function getUint256Slot(bytes32 slot) internal pure returns (Uint256Slot storage r) {... */\n    tag_35:\n        /* \"contracts/openzeppelin/utils/StorageSlot.sol\":1214:1235  Uint256Slot storage r */\n      0x00\n        /* \"contracts/openzeppelin/utils/StorageSlot.sol\":1323:1327  slot */\n      dup2\n        /* \"contracts/openzeppelin/utils/StorageSlot.sol\":1313:1327  r.slot := slot */\n      swap1\n      pop\n        /* \"contracts/openzeppelin/utils/StorageSlot.sol\":1153:1343  function getUint256Slot(bytes32 slot) internal pure returns (Uint256Slot storage r) {... */\n      swap2\n      swap1\n      pop\n      jump\t// out\n        /* \"#utility.yul\":7:146   */\n    tag_40:\n        /* \"#utility.yul\":53:58   */\n      0x00\n        /* \"#utility.yul\":91:97   */\n      dup2\n        /* \"#utility.yul\":78:98   */\n      calldataload\n        /* \"#utility.yul\":69:98   */\n      swap1\n      pop\n        /* \"#utility.yul\":107:140   */\n      tag_42\n        /* \"#utility.yul\":134:139   */\n      dup2\n        /* \"#utility.yul\":107:140   */\n      tag_43\n      jump\t// in\n    tag_42:\n        /* \"#utility.yul\":7:146   */\n      swap3\n      swap2\n      pop\n      pop\n      jump\t// out\n        /* \"#utility.yul\":152:481   */\n    tag_24:\n        /* \"#utility.yul\":211:217   */\n      0x00\n        /* \"#utility.yul\":260:262   */\n      0x20\n        /* \"#utility.yul\":248:257   */\n      dup3\n        /* \"#utility.yul\":239:246   */\n      dup5\n        /* \"#utility.yul\":235:258   */\n      sub\n        /* \"#utility.yul\":231:263   */\n      slt\n        /* \"#utility.yul\":228:347   */\n      iszero\n      tag_45\n      jumpi\n        /* \"#utility.yul\":266:345   */\n      tag_46\n      tag_47\n      jump\t// in\n    tag_46:\n        /* \"#utility.yul\":228:347   */\n    tag_45:\n        /* \"#utility.yul\":386:387   */\n      0x00\n        /* \"#utility.yul\":411:464   */\n      tag_48\n        /* \"#utility.yul\":456:463   */\n      dup5\n        /* \"#utility.yul\":447:453   */\n      dup3\n        /* \"#utility.yul\":436:445   */\n      dup6\n        /* \"#utility.yul\":432:454   */\n      add\n        /* \"#utility.yul\":411:464   */\n      tag_40\n      jump\t// in\n    tag_48:\n        /* \"#utility.yul\":401:464   */\n      swap2\n      pop\n        /* \"#utility.yul\":357:474   */\n      pop\n        /* \"#utility.yul\":152:481   */\n      swap3\n      swap2\n      pop\n      pop\n      jump\t// out\n        /* \"#utility.yul\":487:605   */\n    tag_49:\n        /* \"#utility.yul\":574:598   */\n      tag_51\n        /* \"#utility.yul\":592:597   */\n      dup2\n        /* \"#utility.yul\":574:598   */\n      tag_52\n      jump\t// in\n    tag_51:\n        /* \"#utility.yul\":569:572   */\n      dup3\n        /* \"#utility.yul\":562:599   */\n      mstore\n        /* \"#utility.yul\":487:605   */\n      pop\n      pop\n      jump\t// out\n        /* \"#utility.yul\":611:729   */\n    tag_53:\n        /* \"#utility.yul\":698:722   */\n      tag_55\n        /* \"#utility.yul\":716:721   */\n      dup2\n        /* \"#utility.yul\":698:722   */\n      tag_56\n      jump\t// in\n    tag_55:\n        /* \"#utility.yul\":693:696   */\n      dup3\n        /* \"#utility.yul\":686:723   */\n      mstore\n        /* \"#utility.yul\":611:729   */\n      pop\n      pop\n      jump\t// out\n        /* \"#utility.yul\":735:957   */\n    tag_12:\n        /* \"#utility.yul\":828:832   */\n      0x00\n        /* \"#utility.yul\":866:868   */\n      0x20\n        /* \"#utility.yul\":855:864   */\n      dup3\n        /* \"#utility.yul\":851:869   */\n      add\n        /* \"#utility.yul\":843:869   */\n      swap1\n      pop\n        /* \"#utility.yul\":879:950   */\n      tag_58\n        /* \"#utility.yul\":947:948   */\n      0x00\n        /* \"#utility.yul\":936:945   */\n      dup4\n        /* \"#utility.yul\":932:949   */\n      add\n        /* \"#utility.yul\":923:929   */\n      dup5\n        /* \"#utility.yul\":879:950   */\n      tag_49\n      jump\t// in\n    tag_58:\n        /* \"#utility.yul\":735:957   */\n      swap3\n      swap2\n      pop\n      pop\n      jump\t// out\n        /* \"#utility.yul\":963:1185   */\n    tag_21:\n        /* \"#utility.yul\":1056:1060   */\n      0x00\n        /* \"#utility.yul\":1094:1096   */\n      0x20\n        /* \"#utility.yul\":1083:1092   */\n      dup3\n        /* \"#utility.yul\":1079:1097   */\n      add\n        /* \"#utility.yul\":1071:1097   */\n      swap1\n      pop\n        /* \"#utility.yul\":1107:1178   */\n      tag_60\n        /* \"#utility.yul\":1175:1176   */\n      0x00\n        /* \"#utility.yul\":1164:1173   */\n      dup4\n        /* \"#utility.yul\":1160:1177   */\n      add\n        /* \"#utility.yul\":1151:1157   */\n      dup5\n        /* \"#utility.yul\":1107:1178   */\n      tag_53\n      jump\t// in\n    tag_60:\n        /* \"#utility.yul\":963:1185   */\n      swap3\n      swap2\n      pop\n      pop\n      jump\t// out\n        /* \"#utility.yul\":1272:1368   */\n    tag_52:\n        /* \"#utility.yul\":1309:1316   */\n      0x00\n        /* \"#utility.yul\":1338:1362   */\n      tag_64\n        /* \"#utility.yul\":1356:1361   */\n      dup3\n        /* \"#utility.yul\":1338:1362   */\n      tag_65\n      jump\t// in\n    tag_64:\n        /* \"#utility.yul\":1327:1362   */\n      swap1\n      pop\n        /* \"#utility.yul\":1272:1368   */\n      swap2\n      swap1\n      pop\n      jump\t// out\n        /* \"#utility.yul\":1374:1500   */\n    tag_65:\n        /* \"#utility.yul\":1411:1418   */\n      0x00\n        /* \"#utility.yul\":1451:1493   */\n      0xffffffffffffffffffffffffffffffffffffffff\n        /* \"#utility.yul\":1444:1449   */\n      dup3\n        /* \"#utility.yul\":1440:1494   */\n      and\n        /* \"#utility.yul\":1429:1494   */\n      swap1\n      pop\n        /* \"#utility.yul\":1374:1500   */\n      swap2\n      swap1\n      pop\n      jump\t// out\n        /* \"#utility.yul\":1506:1583   */\n    tag_56:\n        /* \"#utility.yul\":1543:1550   */\n      0x00\n        /* \"#utility.yul\":1572:1577   */\n      dup2\n        /* \"#utility.yul\":1561:1577   */\n      swap1\n      pop\n        /* \"#utility.yul\":1506:1583   */\n      swap2\n      swap1\n      pop\n      jump\t// out\n        /* \"#utility.yul\":1712:1829   */\n    tag_47:\n        /* \"#utility.yul\":1821:1822   */\n      0x00\n        /* \"#utility.yul\":1818:1819   */\n      dup1\n        /* \"#utility.yul\":1811:1823   */\n      revert\n        /* \"#utility.yul\":1835:1957   */\n    tag_43:\n        /* \"#utility.yul\":1908:1932   */\n      tag_72\n        /* \"#utility.yul\":1926:1931   */\n      dup2\n        /* \"#utility.yul\":1908:1932   */\n      tag_56\n      jump\t// in\n    tag_72:\n        /* \"#utility.yul\":1901:1906   */\n      dup2\n        /* \"#utility.yul\":1898:1933   */\n      eq\n        /* \"#utility.yul\":1888:1951   */\n      tag_73\n      jumpi\n        /* \"#utility.yul\":1947:1948   */\n      0x00\n        /* \"#utility.yul\":1944:1945   */\n      dup1\n        /* \"#utility.yul\":1937:1949   */\n      revert\n        /* \"#utility.yul\":1888:1951   */\n    tag_73:\n        /* \"#utility.yul\":1835:1957   */\n      pop\n      jump\t// out\n\n    auxdata: 0xa26469706673582212202b91cc9e2246bf32bb301320a537283a64243dee731ecbeca48fb8b5bb28a77564736f6c63430008070033\n}\n",
				"bytecode": {
					"linkReferences": {},
					"object": "608060405234801561001057600080fd5b5061030a806100206000396000f3fe608060405234801561001057600080fd5b50600436106100625760003560e01c806332e7c5bf14610067578063a1c5191514610085578063d1f4ba82146100a3578063d46300fd146100ad578063ee919d50146100cb578063f446c1d0146100e7575b600080fd5b61006f610105565b60405161007c9190610246565b60405180910390f35b61008d61012b565b60405161009a9190610246565b60405180910390f35b6100ab610165565b005b6100b56101a8565b6040516100c29190610261565b60405180910390f35b6100e560048036038101906100e091906101fb565b6101c2565b005b6100ef6101cc565b6040516100fc9190610261565b60405180910390f35b600160009054906101000a900473ffffffffffffffffffffffffffffffffffffffff1681565b6000806001905061013b816101d2565b60000160009054906101000a900473ffffffffffffffffffffffffffffffffffffffff1691505090565b33600160006101000a81548173ffffffffffffffffffffffffffffffffffffffff021916908373ffffffffffffffffffffffffffffffffffffffff160217905550565b600080600090506101b8816101dc565b6000015491505090565b8060008190555050565b60005481565b6000819050919050565b6000819050919050565b6000813590506101f5816102bd565b92915050565b600060208284031215610211576102106102b8565b5b600061021f848285016101e6565b91505092915050565b6102318161027c565b82525050565b610240816102ae565b82525050565b600060208201905061025b6000830184610228565b92915050565b60006020820190506102766000830184610237565b92915050565b60006102878261028e565b9050919050565b600073ffffffffffffffffffffffffffffffffffffffff82169050919050565b6000819050919050565b600080fd5b6102c6816102ae565b81146102d157600080fd5b5056fea26469706673582212202b91cc9e2246bf32bb301320a537283a64243dee731ecbeca48fb8b5bb28a77564736f6c63430008070033",
					"opcodes": "PUSH1 0x80 PUSH1 0x40 MSTORE CALLVALUE DUP1 ISZERO PUSH2 0x10 JUMPI PUSH1 0x0 DUP1 REVERT JUMPDEST POP PUSH2 0x30A DUP1 PUSH2 0x20 PUSH1 0x0 CODECOPY PUSH1 0x0 RETURN INVALID PUSH1 0x80 PUSH1 0x40 MSTORE CALLVALUE DUP1 ISZERO PUSH2 0x10 JUMPI PUSH1 0x0 DUP1 REVERT JUMPDEST POP PUSH1 0x4 CALLDATASIZE LT PUSH2 0x62 JUMPI PUSH1 0x0 CALLDATALOAD PUSH1 0xE0 SHR DUP1 PUSH4 0x32E7C5BF EQ PUSH2 0x67 JUMPI DUP1 PUSH4 0xA1C51915 EQ PUSH2 0x85 JUMPI DUP1 PUSH4 0xD1F4BA82 EQ PUSH2 0xA3 JUMPI DUP1 PUSH4 0xD46300FD EQ PUSH2 0xAD JUMPI DUP1 PUSH4 0xEE919D50 EQ PUSH2 0xCB JUMPI DUP1 PUSH4 0xF446C1D0 EQ PUSH2 0xE7 JUMPI JUMPDEST PUSH1 0x0 DUP1 REVERT JUMPDEST PUSH2 0x6F PUSH2 0x105 JUMP JUMPDEST PUSH1 0x40 MLOAD PUSH2 0x7C SWAP2 SWAP1 PUSH2 0x246 JUMP JUMPDEST PUSH1 0x40 MLOAD DUP1 SWAP2 SUB SWAP1 RETURN JUMPDEST PUSH2 0x8D PUSH2 0x12B JUMP JUMPDEST PUSH1 0x40 MLOAD PUSH2 0x9A SWAP2 SWAP1 PUSH2 0x246 JUMP JUMPDEST PUSH1 0x40 MLOAD DUP1 SWAP2 SUB SWAP1 RETURN JUMPDEST PUSH2 0xAB PUSH2 0x165 JUMP JUMPDEST STOP JUMPDEST PUSH2 0xB5 PUSH2 0x1A8 JUMP JUMPDEST PUSH1 0x40 MLOAD PUSH2 0xC2 SWAP2 SWAP1 PUSH2 0x261 JUMP JUMPDEST PUSH1 0x40 MLOAD DUP1 SWAP2 SUB SWAP1 RETURN JUMPDEST PUSH2 0xE5 PUSH1 0x4 DUP1 CALLDATASIZE SUB DUP2 ADD SWAP1 PUSH2 0xE0 SWAP2 SWAP1 PUSH2 0x1FB JUMP JUMPDEST PUSH2 0x1C2 JUMP JUMPDEST STOP JUMPDEST PUSH2 0xEF PUSH2 0x1CC JUMP JUMPDEST PUSH1 0x40 MLOAD PUSH2 0xFC SWAP2 SWAP1 PUSH2 0x261 JUMP JUMPDEST PUSH1 0x40 MLOAD DUP1 SWAP2 SUB SWAP1 RETURN JUMPDEST PUSH1 0x1 PUSH1 0x0 SWAP1 SLOAD SWAP1 PUSH2 0x100 EXP SWAP1 DIV PUSH20 0xFFFFFFFFFFFFFFFFFFFFFFFFFFFFFFFFFFFFFFFF AND DUP2 JUMP JUMPDEST PUSH1 0x0 DUP1 PUSH1 0x1 SWAP1 POP PUSH2 0x13B DUP2 PUSH2 0x1D2 JUMP JUMPDEST PUSH1 0x0 ADD PUSH1 0x0 SWAP1 SLOAD SWAP1 PUSH2 0x100 EXP SWAP1 DIV PUSH20 0xFFFFFFFFFFFFFFFFFFFFFFFFFFFFFFFFFFFFFFFF AND SWAP2 POP POP SWAP1 JUMP JUMPDEST CALLER PUSH1 0x1 PUSH1 0x0 PUSH2 0x100 EXP DUP2 SLOAD DUP2 PUSH20 0xFFFFFFFFFFFFFFFFFFFFFFFFFFFFFFFFFFFFFFFF MUL NOT AND SWAP1 DUP4 PUSH20 0xFFFFFFFFFFFFFFFFFFFFFFFFFFFFFFFFFFFFFFFF AND MUL OR SWAP1 SSTORE POP JUMP JUMPDEST PUSH1 0x0 DUP1 PUSH1 0x0 SWAP1 POP PUSH2 0x1B8 DUP2 PUSH2 0x1DC JUMP JUMPDEST PUSH1 0x0 ADD SLOAD SWAP2 POP POP SWAP1 JUMP JUMPDEST DUP1 PUSH1 0x0 DUP2 SWAP1 SSTORE POP POP JUMP JUMPDEST PUSH1 0x0 SLOAD DUP2 JUMP JUMPDEST PUSH1 0x0 DUP2 SWAP1 POP SWAP2 SWAP1 POP JUMP JUMPDEST PUSH1 0x0 DUP2 SWAP1 POP SWAP2 SWAP1 POP JUMP JUMPDEST PUSH1 0x0 DUP2 CALLDATALOAD SWAP1 POP PUSH2 0x1F5 DUP2 PUSH2 0x2BD JUMP JUMPDEST SWAP3 SWAP2 POP POP JUMP JUMPDEST PUSH1 0x0 PUSH1 0x20 DUP3 DUP5 SUB SLT ISZERO PUSH2 0x211 JUMPI PUSH2 0x210 PUSH2 0x2B8 JUMP JUMPDEST JUMPDEST PUSH1 0x0 PUSH2 0x21F DUP5 DUP3 DUP6 ADD PUSH2 0x1E6 JUMP JUMPDEST SWAP2 POP POP SWAP3 SWAP2 POP POP JUMP JUMPDEST PUSH2 0x231 DUP2 PUSH2 0x27C JUMP JUMPDEST DUP3 MSTORE POP POP JUMP JUMPDEST PUSH2 0x240 DUP2 PUSH2 0x2AE JUMP JUMPDEST DUP3 MSTORE POP POP JUMP JUMPDEST PUSH1 0x0 PUSH1 0x20 DUP3 ADD SWAP1 POP PUSH2 0x25B PUSH1 0x0 DUP4 ADD DUP5 PUSH2 0x228 JUMP JUMPDEST SWAP3 SWAP2 POP POP JUMP JUMPDEST PUSH1 0x0 PUSH1 0x20 DUP3 ADD SWAP1 POP PUSH2 0x276 PUSH1 0x0 DUP4 ADD DUP5 PUSH2 0x237 JUMP JUMPDEST SWAP3 SWAP2 POP POP JUMP JUMPDEST PUSH1 0x0 PUSH2 0x287 DUP3 PUSH2 0x28E JUMP JUMPDEST SWAP1 POP SWAP2 SWAP1 POP JUMP JUMPDEST PUSH1 0x0 PUSH20 0xFFFFFFFFFFFFFFFFFFFFFFFFFFFFFFFFFFFFFFFF DUP3 AND SWAP1 POP SWAP2 SWAP1 POP JUMP JUMPDEST PUSH1 0x0 DUP2 SWAP1 POP SWAP2 SWAP1 POP JUMP JUMPDEST PUSH1 0x0 DUP1 REVERT JUMPDEST PUSH2 0x2C6 DUP2 PUSH2 0x2AE JUMP JUMPDEST DUP2 EQ PUSH2 0x2D1 JUMPI PUSH1 0x0 DUP1 REVERT JUMPDEST POP JUMP INVALID LOG2 PUSH5 0x6970667358 0x22 SLT KECCAK256 0x2B SWAP2 0xCC SWAP15 0x22 CHAINID 0xBF ORIGIN 0xBB ADDRESS SGT KECCAK256 0xA5 CALLDATACOPY 0x28 GASPRICE PUSH5 0x243DEE731E 0xCB 0xEC LOG4 DUP16 0xB8 0xB5 0xBB 0x28 0xA7 PUSH22 0x64736F6C634300080700330000000000000000000000 "
				},
				"gasEstimates": {
					"creation": {
						"codeDepositCost": "155600",
						"executionCost": "202",
						"totalCost": "155802"
					},
					"external": {
						"A()": "2517",
						"B()": "2492",
						"getA()": "2543",
						"getB()": "2584",
						"setA(uint256)": "22586",
						"setB()": "24432"
					}
				},
				"methodIdentifiers": {
					"A()": "f446c1d0",
					"B()": "32e7c5bf",
					"getA()": "d46300fd",
					"getB()": "a1c51915",
					"setA(uint256)": "ee919d50",
					"setB()": "d1f4ba82"
				}
			},
			"storageLayout": {
				"storage": [
					{
						"astId": 62,
						"contract": "contracts/openzeppelin/utils/StorageSlot.sol:SSTest",
						"label": "A",
						"offset": 0,
						"slot": "0",
						"type": "t_uint256"
					},
					{
						"astId": 64,
						"contract": "contracts/openzeppelin/utils/StorageSlot.sol:SSTest",
						"label": "B",
						"offset": 0,
						"slot": "1",
						"type": "t_address"
					}
				],
				"types": {
					"t_address": {
						"encoding": "inplace",
						"label": "address",
						"numberOfBytes": "20"
					},
					"t_uint256": {
						"encoding": "inplace",
						"label": "uint256",
						"numberOfBytes": "32"
					}
				}
			},
			"userdoc": {
				"kind": "user",
				"methods": {},
				"version": 1
			}
		}
	}
}