{
	"contracts/openzeppelin/utils/Arrays.sol": {
		"ArrayAccessTest": {
			"abi": [
				{
					"inputs": [
						{
							"internalType": "uint256",
							"name": "",
							"type": "uint256"
						}
					],
					"name": "arr",
					"outputs": [
						{
							"internalType": "uint256",
							"name": "",
							"type": "uint256"
						}
					],
					"stateMutability": "view",
					"type": "function"
				},
				{
					"inputs": [
						{
							"internalType": "uint256",
							"name": "index",
							"type": "uint256"
						}
					],
					"name": "get",
					"outputs": [
						{
							"internalType": "uint256",
							"name": "",
							"type": "uint256"
						}
					],
					"stateMutability": "view",
					"type": "function"
				},
				{
					"inputs": [
						{
							"internalType": "uint256",
							"name": "a",
							"type": "uint256"
						}
					],
					"name": "push",
					"outputs": [],
					"stateMutability": "nonpayable",
					"type": "function"
				}
			],
			"devdoc": {
				"kind": "dev",
				"methods": {},
				"version": 1
			},
			"evm": {
				"assembly": "    /* \"contracts/openzeppelin/utils/Arrays.sol\":2433:2701  contract ArrayAccessTest{... */\n  mstore(0x40, 0x80)\n  callvalue\n  dup1\n  iszero\n  tag_1\n  jumpi\n  0x00\n  dup1\n  revert\ntag_1:\n  pop\n  dataSize(sub_0)\n  dup1\n  dataOffset(sub_0)\n  0x00\n  codecopy\n  0x00\n  return\nstop\n\nsub_0: assembly {\n        /* \"contracts/openzeppelin/utils/Arrays.sol\":2433:2701  contract ArrayAccessTest{... */\n      mstore(0x40, 0x80)\n      callvalue\n      dup1\n      iszero\n      tag_1\n      jumpi\n      0x00\n      dup1\n      revert\n    tag_1:\n      pop\n      jumpi(tag_2, lt(calldatasize, 0x04))\n      shr(0xe0, calldataload(0x00))\n      dup1\n      0x71e5ee5f\n      eq\n      tag_3\n      jumpi\n      dup1\n      0x9507d39a\n      eq\n      tag_4\n      jumpi\n      dup1\n      0x959ac484\n      eq\n      tag_5\n      jumpi\n    tag_2:\n      0x00\n      dup1\n      revert\n        /* \"contracts/openzeppelin/utils/Arrays.sol\":2497:2517  uint256[] public arr */\n    tag_3:\n      tag_6\n      0x04\n      dup1\n      calldatasize\n      sub\n      dup2\n      add\n      swap1\n      tag_7\n      swap2\n      swap1\n      tag_8\n      jump\t// in\n    tag_7:\n      tag_9\n      jump\t// in\n    tag_6:\n      mload(0x40)\n      tag_10\n      swap2\n      swap1\n      tag_11\n      jump\t// in\n    tag_10:\n      mload(0x40)\n      dup1\n      swap2\n      sub\n      swap1\n      return\n        /* \"contracts/openzeppelin/utils/Arrays.sol\":2589:2698  function get(uint256 index) public view returns(uint256){... */\n    tag_4:\n      tag_12\n      0x04\n      dup1\n      calldatasize\n      sub\n      dup2\n      add\n      swap1\n      tag_13\n      swap2\n      swap1\n      tag_8\n      jump\t// in\n    tag_13:\n      tag_14\n      jump\t// in\n    tag_12:\n      mload(0x40)\n      tag_15\n      swap2\n      swap1\n      tag_11\n      jump\t// in\n    tag_15:\n      mload(0x40)\n      dup1\n      swap2\n      sub\n      swap1\n      return\n        /* \"contracts/openzeppelin/utils/Arrays.sol\":2524:2583  function push(uint256 a)public {... */\n    tag_5:\n      tag_16\n      0x04\n      dup1\n      calldatasize\n      sub\n      dup2\n      add\n      swap1\n      tag_17\n      swap2\n      swap1\n      tag_8\n      jump\t// in\n    tag_17:\n      tag_18\n      jump\t// in\n    tag_16:\n      stop\n        /* \"contracts/openzeppelin/utils/Arrays.sol\":2497:2517  uint256[] public arr */\n    tag_9:\n      0x00\n      dup2\n      dup2\n      sload\n      dup2\n      lt\n      tag_19\n      jumpi\n      0x00\n      dup1\n      revert\n    tag_19:\n      swap1\n      0x00\n      mstore\n      keccak256(0x00, 0x20)\n      add\n      0x00\n      swap2\n      pop\n      swap1\n      pop\n      sload\n      dup2\n      jump\t// out\n        /* \"contracts/openzeppelin/utils/Arrays.sol\":2589:2698  function get(uint256 index) public view returns(uint256){... */\n    tag_14:\n        /* \"contracts/openzeppelin/utils/Arrays.sol\":2637:2644  uint256 */\n      0x00\n        /* \"contracts/openzeppelin/utils/Arrays.sol\":2662:2685  arr.unsafeAccess(index) */\n      tag_22\n        /* \"contracts/openzeppelin/utils/Arrays.sol\":2679:2684  index */\n      dup3\n        /* \"contracts/openzeppelin/utils/Arrays.sol\":2662:2665  arr */\n      0x00\n        /* \"contracts/openzeppelin/utils/Arrays.sol\":2662:2678  arr.unsafeAccess */\n      tag_23\n      swap1\n        /* \"contracts/openzeppelin/utils/Arrays.sol\":2662:2685  arr.unsafeAccess(index) */\n      swap2\n      swap1\n      0xffffffff\n      and\n      jump\t// in\n    tag_22:\n        /* \"contracts/openzeppelin/utils/Arrays.sol\":2662:2691  arr.unsafeAccess(index).value */\n      0x00\n      add\n      sload\n        /* \"contracts/openzeppelin/utils/Arrays.sol\":2655:2691  return arr.unsafeAccess(index).value */\n      swap1\n      pop\n        /* \"contracts/openzeppelin/utils/Arrays.sol\":2589:2698  function get(uint256 index) public view returns(uint256){... */\n      swap2\n      swap1\n      pop\n      jump\t// out\n        /* \"contracts/openzeppelin/utils/Arrays.sol\":2524:2583  function push(uint256 a)public {... */\n    tag_18:\n        /* \"contracts/openzeppelin/utils/Arrays.sol\":2565:2568  arr */\n      0x00\n        /* \"contracts/openzeppelin/utils/Arrays.sol\":2574:2575  a */\n      dup2\n        /* \"contracts/openzeppelin/utils/Arrays.sol\":2565:2576  arr.push(a) */\n      swap1\n      dup1\n      0x01\n      dup2\n      sload\n      add\n      dup1\n      dup3\n      sstore\n      dup1\n      swap2\n      pop\n      pop\n      0x01\n      swap1\n      sub\n      swap1\n      0x00\n      mstore\n      keccak256(0x00, 0x20)\n      add\n      0x00\n      swap1\n      swap2\n      swap1\n      swap2\n      swap1\n      swap2\n      pop\n      sstore\n        /* \"contracts/openzeppelin/utils/Arrays.sol\":2524:2583  function push(uint256 a)public {... */\n      pop\n      jump\t// out\n        /* \"contracts/openzeppelin/utils/Arrays.sol\":1856:2429  function unsafeAccess(uint256[] storage arr, uint256 pos) internal pure returns (StorageSlot.Uint256Slot storage) {... */\n    tag_23:\n        /* \"contracts/openzeppelin/utils/Arrays.sol\":1937:1968  StorageSlot.Uint256Slot storage */\n      0x00\n        /* \"contracts/openzeppelin/utils/Arrays.sol\":1980:1992  bytes32 slot */\n      dup1\n        /* \"contracts/openzeppelin/utils/Arrays.sol\":2317:2325  arr.slot */\n      dup4\n        /* \"contracts/openzeppelin/utils/Arrays.sol\":2314:2315  0 */\n      0x00\n        /* \"contracts/openzeppelin/utils/Arrays.sol\":2307:2326  mstore(0, arr.slot) */\n      mstore\n        /* \"contracts/openzeppelin/utils/Arrays.sol\":2371:2374  pos */\n      dup3\n        /* \"contracts/openzeppelin/utils/Arrays.sol\":2364:2368  0x20 */\n      0x20\n        /* \"contracts/openzeppelin/utils/Arrays.sol\":2361:2362  0 */\n      0x00\n        /* \"contracts/openzeppelin/utils/Arrays.sol\":2351:2369  keccak256(0, 0x20) */\n      keccak256\n        /* \"contracts/openzeppelin/utils/Arrays.sol\":2347:2375  add(keccak256(0, 0x20), pos) */\n      add\n        /* \"contracts/openzeppelin/utils/Arrays.sol\":2339:2375  slot := add(keccak256(0, 0x20), pos) */\n      swap1\n      pop\n        /* \"contracts/openzeppelin/utils/Arrays.sol\":2401:2422  slot.getUint256Slot() */\n      tag_27\n        /* \"contracts/openzeppelin/utils/Arrays.sol\":2401:2405  slot */\n      dup2\n        /* \"contracts/openzeppelin/utils/Arrays.sol\":2401:2420  slot.getUint256Slot */\n      tag_28\n        /* \"contracts/openzeppelin/utils/Arrays.sol\":2401:2422  slot.getUint256Slot() */\n      jump\t// in\n    tag_27:\n        /* \"contracts/openzeppelin/utils/Arrays.sol\":2394:2422  return slot.getUint256Slot() */\n      swap2\n      pop\n      pop\n        /* \"contracts/openzeppelin/utils/Arrays.sol\":1856:2429  function unsafeAccess(uint256[] storage arr, uint256 pos) internal pure returns (StorageSlot.Uint256Slot storage) {... */\n      swap3\n      swap2\n      pop\n      pop\n      jump\t// out\n        /* \"contracts/openzeppelin/utils/StorageSlot.sol\":1153:1343  function getUint256Slot(bytes32 slot) internal pure returns (Uint256Slot storage r) {... */\n    tag_28:\n        /* \"contracts/openzeppelin/utils/StorageSlot.sol\":1214:1235  Uint256Slot storage r */\n      0x00\n        /* \"contracts/openzeppelin/utils/StorageSlot.sol\":1323:1327  slot */\n      dup2\n        /* \"contracts/openzeppelin/utils/StorageSlot.sol\":1313:1327  r.slot := slot */\n      swap1\n      pop\n        /* \"contracts/openzeppelin/utils/StorageSlot.sol\":1153:1343  function getUint256Slot(bytes32 slot) internal pure returns (Uint256Slot storage r) {... */\n      swap2\n      swap1\n      pop\n      jump\t// out\n        /* \"#utility.yul\":7:146   */\n    tag_31:\n        /* \"#utility.yul\":53:58   */\n      0x00\n        /* \"#utility.yul\":91:97   */\n      dup2\n        /* \"#utility.yul\":78:98   */\n      calldataload\n        /* \"#utility.yul\":69:98   */\n      swap1\n      pop\n        /* \"#utility.yul\":107:140   */\n      tag_33\n        /* \"#utility.yul\":134:139   */\n      dup2\n        /* \"#utility.yul\":107:140   */\n      tag_34\n      jump\t// in\n    tag_33:\n        /* \"#utility.yul\":7:146   */\n      swap3\n      swap2\n      pop\n      pop\n      jump\t// out\n        /* \"#utility.yul\":152:481   */\n    tag_8:\n        /* \"#utility.yul\":211:217   */\n      0x00\n        /* \"#utility.yul\":260:262   */\n      0x20\n        /* \"#utility.yul\":248:257   */\n      dup3\n        /* \"#utility.yul\":239:246   */\n      dup5\n        /* \"#utility.yul\":235:258   */\n      sub\n        /* \"#utility.yul\":231:263   */\n      slt\n        /* \"#utility.yul\":228:347   */\n      iszero\n      tag_36\n      jumpi\n        /* \"#utility.yul\":266:345   */\n      tag_37\n      tag_38\n      jump\t// in\n    tag_37:\n        /* \"#utility.yul\":228:347   */\n    tag_36:\n        /* \"#utility.yul\":386:387   */\n      0x00\n        /* \"#utility.yul\":411:464   */\n      tag_39\n        /* \"#utility.yul\":456:463   */\n      dup5\n        /* \"#utility.yul\":447:453   */\n      dup3\n        /* \"#utility.yul\":436:445   */\n      dup6\n        /* \"#utility.yul\":432:454   */\n      add\n        /* \"#utility.yul\":411:464   */\n      tag_31\n      jump\t// in\n    tag_39:\n        /* \"#utility.yul\":401:464   */\n      swap2\n      pop\n        /* \"#utility.yul\":357:474   */\n      pop\n        /* \"#utility.yul\":152:481   */\n      swap3\n      swap2\n      pop\n      pop\n      jump\t// out\n        /* \"#utility.yul\":487:605   */\n    tag_40:\n        /* \"#utility.yul\":574:598   */\n      tag_42\n        /* \"#utility.yul\":592:597   */\n      dup2\n        /* \"#utility.yul\":574:598   */\n      tag_43\n      jump\t// in\n    tag_42:\n        /* \"#utility.yul\":569:572   */\n      dup3\n        /* \"#utility.yul\":562:599   */\n      mstore\n        /* \"#utility.yul\":487:605   */\n      pop\n      pop\n      jump\t// out\n        /* \"#utility.yul\":611:833   */\n    tag_11:\n        /* \"#utility.yul\":704:708   */\n      0x00\n        /* \"#utility.yul\":742:744   */\n      0x20\n        /* \"#utility.yul\":731:740   */\n      dup3\n        /* \"#utility.yul\":727:745   */\n      add\n        /* \"#utility.yul\":719:745   */\n      swap1\n      pop\n        /* \"#utility.yul\":755:826   */\n      tag_45\n        /* \"#utility.yul\":823:824   */\n      0x00\n        /* \"#utility.yul\":812:821   */\n      dup4\n        /* \"#utility.yul\":808:825   */\n      add\n        /* \"#utility.yul\":799:805   */\n      dup5\n        /* \"#utility.yul\":755:826   */\n      tag_40\n      jump\t// in\n    tag_45:\n        /* \"#utility.yul\":611:833   */\n      swap3\n      swap2\n      pop\n      pop\n      jump\t// out\n        /* \"#utility.yul\":920:997   */\n    tag_43:\n        /* \"#utility.yul\":957:964   */\n      0x00\n        /* \"#utility.yul\":986:991   */\n      dup2\n        /* \"#utility.yul\":975:991   */\n      swap1\n      pop\n        /* \"#utility.yul\":920:997   */\n      swap2\n      swap1\n      pop\n      jump\t// out\n        /* \"#utility.yul\":1126:1243   */\n    tag_38:\n        /* \"#utility.yul\":1235:1236   */\n      0x00\n        /* \"#utility.yul\":1232:1233   */\n      dup1\n        /* \"#utility.yul\":1225:1237   */\n      revert\n        /* \"#utility.yul\":1249:1371   */\n    tag_34:\n        /* \"#utility.yul\":1322:1346   */\n      tag_53\n        /* \"#utility.yul\":1340:1345   */\n      dup2\n        /* \"#utility.yul\":1322:1346   */\n      tag_43\n      jump\t// in\n    tag_53:\n        /* \"#utility.yul\":1315:1320   */\n      dup2\n        /* \"#utility.yul\":1312:1347   */\n      eq\n        /* \"#utility.yul\":1302:1365   */\n      tag_54\n      jumpi\n        /* \"#utility.yul\":1361:1362   */\n      0x00\n        /* \"#utility.yul\":1358:1359   */\n      dup1\n        /* \"#utility.yul\":1351:1363   */\n      revert\n        /* \"#utility.yul\":1302:1365   */\n    tag_54:\n        /* \"#utility.yul\":1249:1371   */\n      pop\n      jump\t// out\n\n    auxdata: 0xa264697066735822122021747b57ccf8698478974f7702e94f68c07aa6fe613137af044c2e5d05b5c66664736f6c63430008070033\n}\n",
				"bytecode": {
					"linkReferences": {},
					"object": "608060405234801561001057600080fd5b50610227806100206000396000f3fe608060405234801561001057600080fd5b50600436106100415760003560e01c806371e5ee5f146100465780639507d39a14610076578063959ac484146100a6575b600080fd5b610060600480360381019061005b9190610174565b6100c2565b60405161006d91906101b0565b60405180910390f35b610090600480360381019061008b9190610174565b6100e6565b60405161009d91906101b0565b60405180910390f35b6100c060048036038101906100bb9190610174565b610107565b005b600081815481106100d257600080fd5b906000526020600020016000915090505481565b60006100fc82600061013390919063ffffffff16565b600001549050919050565b600081908060018154018082558091505060019003906000526020600020016000909190919091505550565b6000808360005282602060002001905061014c81610155565b91505092915050565b6000819050919050565b60008135905061016e816101da565b92915050565b60006020828403121561018a576101896101d5565b5b60006101988482850161015f565b91505092915050565b6101aa816101cb565b82525050565b60006020820190506101c560008301846101a1565b92915050565b6000819050919050565b600080fd5b6101e3816101cb565b81146101ee57600080fd5b5056fea264697066735822122021747b57ccf8698478974f7702e94f68c07aa6fe613137af044c2e5d05b5c66664736f6c63430008070033",
					"opcodes": "PUSH1 0x80 PUSH1 0x40 MSTORE CALLVALUE DUP1 ISZERO PUSH2 0x10 JUMPI PUSH1 0x0 DUP1 REVERT JUMPDEST POP PUSH2 0x227 DUP1 PUSH2 0x20 PUSH1 0x0 CODECOPY PUSH1 0x0 RETURN INVALID PUSH1 0x80 PUSH1 0x40 MSTORE CALLVALUE DUP1 ISZERO PUSH2 0x10 JUMPI PUSH1 0x0 DUP1 REVERT JUMPDEST POP PUSH1 0x4 CALLDATASIZE LT PUSH2 0x41 JUMPI PUSH1 0x0 CALLDATALOAD PUSH1 0xE0 SHR DUP1 PUSH4 0x71E5EE5F EQ PUSH2 0x46 JUMPI DUP1 PUSH4 0x9507D39A EQ PUSH2 0x76 JUMPI DUP1 PUSH4 0x959AC484 EQ PUSH2 0xA6 JUMPI JUMPDEST PUSH1 0x0 DUP1 REVERT JUMPDEST PUSH2 0x60 PUSH1 0x4 DUP1 CALLDATASIZE SUB DUP2 ADD SWAP1 PUSH2 0x5B SWAP2 SWAP1 PUSH2 0x174 JUMP JUMPDEST PUSH2 0xC2 JUMP JUMPDEST PUSH1 0x40 MLOAD PUSH2 0x6D SWAP2 SWAP1 PUSH2 0x1B0 JUMP JUMPDEST PUSH1 0x40 MLOAD DUP1 SWAP2 SUB SWAP1 RETURN JUMPDEST PUSH2 0x90 PUSH1 0x4 DUP1 CALLDATASIZE SUB DUP2 ADD SWAP1 PUSH2 0x8B SWAP2 SWAP1 PUSH2 0x174 JUMP JUMPDEST PUSH2 0xE6 JUMP JUMPDEST PUSH1 0x40 MLOAD PUSH2 0x9D SWAP2 SWAP1 PUSH2 0x1B0 JUMP JUMPDEST PUSH1 0x40 MLOAD DUP1 SWAP2 SUB SWAP1 RETURN JUMPDEST PUSH2 0xC0 PUSH1 0x4 DUP1 CALLDATASIZE SUB DUP2 ADD SWAP1 PUSH2 0xBB SWAP2 SWAP1 PUSH2 0x174 JUMP JUMPDEST PUSH2 0x107 JUMP JUMPDEST STOP JUMPDEST PUSH1 0x0 DUP2 DUP2 SLOAD DUP2 LT PUSH2 0xD2 JUMPI PUSH1 0x0 DUP1 REVERT JUMPDEST SWAP1 PUSH1 0x0 MSTORE PUSH1 0x20 PUSH1 0x0 KECCAK256 ADD PUSH1 0x0 SWAP2 POP SWAP1 POP SLOAD DUP2 JUMP JUMPDEST PUSH1 0x0 PUSH2 0xFC DUP3 PUSH1 0x0 PUSH2 0x133 SWAP1 SWAP2 SWAP1 PUSH4 0xFFFFFFFF AND JUMP JUMPDEST PUSH1 0x0 ADD SLOAD SWAP1 POP SWAP2 SWAP1 POP JUMP JUMPDEST PUSH1 0x0 DUP2 SWAP1 DUP1 PUSH1 0x1 DUP2 SLOAD ADD DUP1 DUP3 SSTORE DUP1 SWAP2 POP POP PUSH1 0x1 SWAP1 SUB SWAP1 PUSH1 0x0 MSTORE PUSH1 0x20 PUSH1 0x0 KECCAK256 ADD PUSH1 0x0 SWAP1 SWAP2 SWAP1 SWAP2 SWAP1 SWAP2 POP SSTORE POP JUMP JUMPDEST PUSH1 0x0 DUP1 DUP4 PUSH1 0x0 MSTORE DUP3 PUSH1 0x20 PUSH1 0x0 KECCAK256 ADD SWAP1 POP PUSH2 0x14C DUP2 PUSH2 0x155 JUMP JUMPDEST SWAP2 POP POP SWAP3 SWAP2 POP POP JUMP JUMPDEST PUSH1 0x0 DUP2 SWAP1 POP SWAP2 SWAP1 POP JUMP JUMPDEST PUSH1 0x0 DUP2 CALLDATALOAD SWAP1 POP PUSH2 0x16E DUP2 PUSH2 0x1DA JUMP JUMPDEST SWAP3 SWAP2 POP POP JUMP JUMPDEST PUSH1 0x0 PUSH1 0x20 DUP3 DUP5 SUB SLT ISZERO PUSH2 0x18A JUMPI PUSH2 0x189 PUSH2 0x1D5 JUMP JUMPDEST JUMPDEST PUSH1 0x0 PUSH2 0x198 DUP5 DUP3 DUP6 ADD PUSH2 0x15F JUMP JUMPDEST SWAP2 POP POP SWAP3 SWAP2 POP POP JUMP JUMPDEST PUSH2 0x1AA DUP2 PUSH2 0x1CB JUMP JUMPDEST DUP3 MSTORE POP POP JUMP JUMPDEST PUSH1 0x0 PUSH1 0x20 DUP3 ADD SWAP1 POP PUSH2 0x1C5 PUSH1 0x0 DUP4 ADD DUP5 PUSH2 0x1A1 JUMP JUMPDEST SWAP3 SWAP2 POP POP JUMP JUMPDEST PUSH1 0x0 DUP2 SWAP1 POP SWAP2 SWAP1 POP JUMP JUMPDEST PUSH1 0x0 DUP1 REVERT JUMPDEST PUSH2 0x1E3 DUP2 PUSH2 0x1CB JUMP JUMPDEST DUP2 EQ PUSH2 0x1EE JUMPI PUSH1 0x0 DUP1 REVERT JUMPDEST POP JUMP INVALID LOG2 PUSH5 0x6970667358 0x22 SLT KECCAK256 0x21 PUSH21 0x7B57CCF8698478974F7702E94F68C07AA6FE613137 0xAF DIV 0x4C 0x2E 0x5D SDIV 0xB5 0xC6 PUSH7 0x64736F6C634300 ADDMOD SMOD STOP CALLER "
				},
				"gasEstimates": {
					"creation": {
						"codeDepositCost": "110200",
						"executionCost": "159",
						"totalCost": "110359"
					},
					"external": {
						"arr(uint256)": "infinite",
						"get(uint256)": "infinite",
						"push(uint256)": "46851"
					}
				},
				"methodIdentifiers": {
					"arr(uint256)": "71e5ee5f",
					"get(uint256)": "9507d39a",
					"push(uint256)": "959ac484"
				}
			},
			"storageLayout": {
				"storage": [
					{
						"astId": 76,
						"contract": "contracts/openzeppelin/utils/Arrays.sol:ArrayAccessTest",
						"label": "arr",
						"offset": 0,
						"slot": "0",
						"type": "t_array(t_uint256)dyn_storage"
					}
				],
				"types": {
					"t_array(t_uint256)dyn_storage": {
						"base": "t_uint256",
						"encoding": "dynamic_array",
						"label": "uint256[]",
						"numberOfBytes": "32"
					},
					"t_uint256": {
						"encoding": "inplace",
						"label": "uint256",
						"numberOfBytes": "32"
					}
				}
			},
			"userdoc": {
				"kind": "user",
				"methods": {},
				"version": 1
			}
		}
	}
}