{
	"contracts/openzeppelin/utils/Address.sol": {
		"Address": {
			"abi": [
				{
					"inputs": [
						{
							"internalType": "address payable",
							"name": "recipient",
							"type": "address"
						},
						{
							"internalType": "uint256",
							"name": "amount",
							"type": "uint256"
						}
					],
					"name": "SendValue",
					"outputs": [],
					"stateMutability": "payable",
					"type": "function"
				}
			],
			"devdoc": {
				"details": "Collection of functions related to the address type",
				"kind": "dev",
				"methods": {},
				"version": 1
			},
			"evm": {
				"assembly": "    /* \"contracts/openzeppelin/utils/Address.sol\":93:5027  contract Address {... */\n  mstore(0x40, 0x80)\n  callvalue\n  dup1\n  iszero\n  tag_1\n  jumpi\n  0x00\n  dup1\n  revert\ntag_1:\n  pop\n  dataSize(sub_0)\n  dup1\n  dataOffset(sub_0)\n  0x00\n  codecopy\n  0x00\n  return\nstop\n\nsub_0: assembly {\n        /* \"contracts/openzeppelin/utils/Address.sol\":93:5027  contract Address {... */\n      mstore(0x40, 0x80)\n      jumpi(tag_1, lt(calldatasize, 0x04))\n      shr(0xe0, calldataload(0x00))\n      dup1\n      0xd88d1443\n      eq\n      tag_2\n      jumpi\n    tag_1:\n      0x00\n      dup1\n      revert\n        /* \"contracts/openzeppelin/utils/Address.sol\":3054:3178  function SendValue(address payable recipient, uint256 amount) public payable {... */\n    tag_2:\n      tag_3\n      0x04\n      dup1\n      calldatasize\n      sub\n      dup2\n      add\n      swap1\n      tag_4\n      swap2\n      swap1\n      tag_5\n      jump\t// in\n    tag_4:\n      tag_6\n      jump\t// in\n    tag_3:\n      stop\n    tag_6:\n        /* \"contracts/openzeppelin/utils/Address.sol\":3141:3171  sendValue(recipient,msg.value) */\n      tag_8\n        /* \"contracts/openzeppelin/utils/Address.sol\":3151:3160  recipient */\n      dup3\n        /* \"contracts/openzeppelin/utils/Address.sol\":3161:3170  msg.value */\n      callvalue\n        /* \"contracts/openzeppelin/utils/Address.sol\":3141:3150  sendValue */\n      tag_9\n        /* \"contracts/openzeppelin/utils/Address.sol\":3141:3171  sendValue(recipient,msg.value) */\n      jump\t// in\n    tag_8:\n        /* \"contracts/openzeppelin/utils/Address.sol\":3054:3178  function SendValue(address payable recipient, uint256 amount) public payable {... */\n      pop\n      pop\n      jump\t// out\n        /* \"contracts/openzeppelin/utils/Address.sol\":2736:3048  function sendValue(address payable recipient, uint256 amount) internal {... */\n    tag_9:\n        /* \"contracts/openzeppelin/utils/Address.sol\":2850:2856  amount */\n      dup1\n        /* \"contracts/openzeppelin/utils/Address.sol\":2825:2846  address(this).balance */\n      selfbalance\n        /* \"contracts/openzeppelin/utils/Address.sol\":2825:2856  address(this).balance >= amount */\n      lt\n      iszero\n        /* \"contracts/openzeppelin/utils/Address.sol\":2817:2890  require(address(this).balance >= amount, \"Address: insufficient balance\") */\n      tag_11\n      jumpi\n      mload(0x40)\n      0x08c379a000000000000000000000000000000000000000000000000000000000\n      dup2\n      mstore\n      0x04\n      add\n      tag_12\n      swap1\n      tag_13\n      jump\t// in\n    tag_12:\n      mload(0x40)\n      dup1\n      swap2\n      sub\n      swap1\n      revert\n    tag_11:\n        /* \"contracts/openzeppelin/utils/Address.sol\":2902:2914  bool success */\n      0x00\n        /* \"contracts/openzeppelin/utils/Address.sol\":2920:2929  recipient */\n      dup3\n        /* \"contracts/openzeppelin/utils/Address.sol\":2920:2934  recipient.call */\n      0xffffffffffffffffffffffffffffffffffffffff\n      and\n        /* \"contracts/openzeppelin/utils/Address.sol\":2942:2948  amount */\n      dup3\n        /* \"contracts/openzeppelin/utils/Address.sol\":2920:2953  recipient.call{value: amount}(\"\") */\n      mload(0x40)\n      tag_14\n      swap1\n      tag_15\n      jump\t// in\n    tag_14:\n      0x00\n      mload(0x40)\n      dup1\n      dup4\n      sub\n      dup2\n      dup6\n      dup8\n      gas\n      call\n      swap3\n      pop\n      pop\n      pop\n      returndatasize\n      dup1\n      0x00\n      dup2\n      eq\n      tag_18\n      jumpi\n      mload(0x40)\n      swap2\n      pop\n      and(add(returndatasize, 0x3f), not(0x1f))\n      dup3\n      add\n      0x40\n      mstore\n      returndatasize\n      dup3\n      mstore\n      returndatasize\n      0x00\n      0x20\n      dup5\n      add\n      returndatacopy\n      jump(tag_17)\n    tag_18:\n      0x60\n      swap2\n      pop\n    tag_17:\n      pop\n        /* \"contracts/openzeppelin/utils/Address.sol\":2901:2953  (bool success, ) = recipient.call{value: amount}(\"\") */\n      pop\n      swap1\n      pop\n        /* \"contracts/openzeppelin/utils/Address.sol\":2971:2978  success */\n      dup1\n        /* \"contracts/openzeppelin/utils/Address.sol\":2963:3041  require(success, \"Address: unable to send value, recipient may have reverted\") */\n      tag_19\n      jumpi\n      mload(0x40)\n      0x08c379a000000000000000000000000000000000000000000000000000000000\n      dup2\n      mstore\n      0x04\n      add\n      tag_20\n      swap1\n      tag_21\n      jump\t// in\n    tag_20:\n      mload(0x40)\n      dup1\n      swap2\n      sub\n      swap1\n      revert\n    tag_19:\n        /* \"contracts/openzeppelin/utils/Address.sol\":2807:3048  {... */\n      pop\n        /* \"contracts/openzeppelin/utils/Address.sol\":2736:3048  function sendValue(address payable recipient, uint256 amount) internal {... */\n      pop\n      pop\n      jump\t// out\n        /* \"#utility.yul\":7:162   */\n    tag_23:\n        /* \"#utility.yul\":61:66   */\n      0x00\n        /* \"#utility.yul\":99:105   */\n      dup2\n        /* \"#utility.yul\":86:106   */\n      calldataload\n        /* \"#utility.yul\":77:106   */\n      swap1\n      pop\n        /* \"#utility.yul\":115:156   */\n      tag_25\n        /* \"#utility.yul\":150:155   */\n      dup2\n        /* \"#utility.yul\":115:156   */\n      tag_26\n      jump\t// in\n    tag_25:\n        /* \"#utility.yul\":7:162   */\n      swap3\n      swap2\n      pop\n      pop\n      jump\t// out\n        /* \"#utility.yul\":168:307   */\n    tag_27:\n        /* \"#utility.yul\":214:219   */\n      0x00\n        /* \"#utility.yul\":252:258   */\n      dup2\n        /* \"#utility.yul\":239:259   */\n      calldataload\n        /* \"#utility.yul\":230:259   */\n      swap1\n      pop\n        /* \"#utility.yul\":268:301   */\n      tag_29\n        /* \"#utility.yul\":295:300   */\n      dup2\n        /* \"#utility.yul\":268:301   */\n      tag_30\n      jump\t// in\n    tag_29:\n        /* \"#utility.yul\":168:307   */\n      swap3\n      swap2\n      pop\n      pop\n      jump\t// out\n        /* \"#utility.yul\":313:803   */\n    tag_5:\n        /* \"#utility.yul\":389:395   */\n      0x00\n        /* \"#utility.yul\":397:403   */\n      dup1\n        /* \"#utility.yul\":446:448   */\n      0x40\n        /* \"#utility.yul\":434:443   */\n      dup4\n        /* \"#utility.yul\":425:432   */\n      dup6\n        /* \"#utility.yul\":421:444   */\n      sub\n        /* \"#utility.yul\":417:449   */\n      slt\n        /* \"#utility.yul\":414:533   */\n      iszero\n      tag_32\n      jumpi\n        /* \"#utility.yul\":452:531   */\n      tag_33\n      tag_34\n      jump\t// in\n    tag_33:\n        /* \"#utility.yul\":414:533   */\n    tag_32:\n        /* \"#utility.yul\":572:573   */\n      0x00\n        /* \"#utility.yul\":597:658   */\n      tag_35\n        /* \"#utility.yul\":650:657   */\n      dup6\n        /* \"#utility.yul\":641:647   */\n      dup3\n        /* \"#utility.yul\":630:639   */\n      dup7\n        /* \"#utility.yul\":626:648   */\n      add\n        /* \"#utility.yul\":597:658   */\n      tag_23\n      jump\t// in\n    tag_35:\n        /* \"#utility.yul\":587:658   */\n      swap3\n      pop\n        /* \"#utility.yul\":543:668   */\n      pop\n        /* \"#utility.yul\":707:709   */\n      0x20\n        /* \"#utility.yul\":733:786   */\n      tag_36\n        /* \"#utility.yul\":778:785   */\n      dup6\n        /* \"#utility.yul\":769:775   */\n      dup3\n        /* \"#utility.yul\":758:767   */\n      dup7\n        /* \"#utility.yul\":754:776   */\n      add\n        /* \"#utility.yul\":733:786   */\n      tag_27\n      jump\t// in\n    tag_36:\n        /* \"#utility.yul\":723:786   */\n      swap2\n      pop\n        /* \"#utility.yul\":678:796   */\n      pop\n        /* \"#utility.yul\":313:803   */\n      swap3\n      pop\n      swap3\n      swap1\n      pop\n      jump\t// out\n        /* \"#utility.yul\":809:1175   */\n    tag_37:\n        /* \"#utility.yul\":951:954   */\n      0x00\n        /* \"#utility.yul\":972:1039   */\n      tag_39\n        /* \"#utility.yul\":1036:1038   */\n      0x3a\n        /* \"#utility.yul\":1031:1034   */\n      dup4\n        /* \"#utility.yul\":972:1039   */\n      tag_40\n      jump\t// in\n    tag_39:\n        /* \"#utility.yul\":965:1039   */\n      swap2\n      pop\n        /* \"#utility.yul\":1048:1141   */\n      tag_41\n        /* \"#utility.yul\":1137:1140   */\n      dup3\n        /* \"#utility.yul\":1048:1141   */\n      tag_42\n      jump\t// in\n    tag_41:\n        /* \"#utility.yul\":1166:1168   */\n      0x40\n        /* \"#utility.yul\":1161:1164   */\n      dup3\n        /* \"#utility.yul\":1157:1169   */\n      add\n        /* \"#utility.yul\":1150:1169   */\n      swap1\n      pop\n        /* \"#utility.yul\":809:1175   */\n      swap2\n      swap1\n      pop\n      jump\t// out\n        /* \"#utility.yul\":1181:1547   */\n    tag_43:\n        /* \"#utility.yul\":1323:1326   */\n      0x00\n        /* \"#utility.yul\":1344:1411   */\n      tag_45\n        /* \"#utility.yul\":1408:1410   */\n      0x1d\n        /* \"#utility.yul\":1403:1406   */\n      dup4\n        /* \"#utility.yul\":1344:1411   */\n      tag_40\n      jump\t// in\n    tag_45:\n        /* \"#utility.yul\":1337:1411   */\n      swap2\n      pop\n        /* \"#utility.yul\":1420:1513   */\n      tag_46\n        /* \"#utility.yul\":1509:1512   */\n      dup3\n        /* \"#utility.yul\":1420:1513   */\n      tag_47\n      jump\t// in\n    tag_46:\n        /* \"#utility.yul\":1538:1540   */\n      0x20\n        /* \"#utility.yul\":1533:1536   */\n      dup3\n        /* \"#utility.yul\":1529:1541   */\n      add\n        /* \"#utility.yul\":1522:1541   */\n      swap1\n      pop\n        /* \"#utility.yul\":1181:1547   */\n      swap2\n      swap1\n      pop\n      jump\t// out\n        /* \"#utility.yul\":1553:1951   */\n    tag_48:\n        /* \"#utility.yul\":1712:1715   */\n      0x00\n        /* \"#utility.yul\":1733:1816   */\n      tag_50\n        /* \"#utility.yul\":1814:1815   */\n      0x00\n        /* \"#utility.yul\":1809:1812   */\n      dup4\n        /* \"#utility.yul\":1733:1816   */\n      tag_51\n      jump\t// in\n    tag_50:\n        /* \"#utility.yul\":1726:1816   */\n      swap2\n      pop\n        /* \"#utility.yul\":1825:1918   */\n      tag_52\n        /* \"#utility.yul\":1914:1917   */\n      dup3\n        /* \"#utility.yul\":1825:1918   */\n      tag_53\n      jump\t// in\n    tag_52:\n        /* \"#utility.yul\":1943:1944   */\n      0x00\n        /* \"#utility.yul\":1938:1941   */\n      dup3\n        /* \"#utility.yul\":1934:1945   */\n      add\n        /* \"#utility.yul\":1927:1945   */\n      swap1\n      pop\n        /* \"#utility.yul\":1553:1951   */\n      swap2\n      swap1\n      pop\n      jump\t// out\n        /* \"#utility.yul\":1957:2336   */\n    tag_15:\n        /* \"#utility.yul\":2141:2144   */\n      0x00\n        /* \"#utility.yul\":2163:2310   */\n      tag_55\n        /* \"#utility.yul\":2306:2309   */\n      dup3\n        /* \"#utility.yul\":2163:2310   */\n      tag_48\n      jump\t// in\n    tag_55:\n        /* \"#utility.yul\":2156:2310   */\n      swap2\n      pop\n        /* \"#utility.yul\":2327:2330   */\n      dup2\n        /* \"#utility.yul\":2320:2330   */\n      swap1\n      pop\n        /* \"#utility.yul\":1957:2336   */\n      swap2\n      swap1\n      pop\n      jump\t// out\n        /* \"#utility.yul\":2342:2761   */\n    tag_21:\n        /* \"#utility.yul\":2508:2512   */\n      0x00\n        /* \"#utility.yul\":2546:2548   */\n      0x20\n        /* \"#utility.yul\":2535:2544   */\n      dup3\n        /* \"#utility.yul\":2531:2549   */\n      add\n        /* \"#utility.yul\":2523:2549   */\n      swap1\n      pop\n        /* \"#utility.yul\":2595:2604   */\n      dup2\n        /* \"#utility.yul\":2589:2593   */\n      dup2\n        /* \"#utility.yul\":2585:2605   */\n      sub\n        /* \"#utility.yul\":2581:2582   */\n      0x00\n        /* \"#utility.yul\":2570:2579   */\n      dup4\n        /* \"#utility.yul\":2566:2583   */\n      add\n        /* \"#utility.yul\":2559:2606   */\n      mstore\n        /* \"#utility.yul\":2623:2754   */\n      tag_57\n        /* \"#utility.yul\":2749:2753   */\n      dup2\n        /* \"#utility.yul\":2623:2754   */\n      tag_37\n      jump\t// in\n    tag_57:\n        /* \"#utility.yul\":2615:2754   */\n      swap1\n      pop\n        /* \"#utility.yul\":2342:2761   */\n      swap2\n      swap1\n      pop\n      jump\t// out\n        /* \"#utility.yul\":2767:3186   */\n    tag_13:\n        /* \"#utility.yul\":2933:2937   */\n      0x00\n        /* \"#utility.yul\":2971:2973   */\n      0x20\n        /* \"#utility.yul\":2960:2969   */\n      dup3\n        /* \"#utility.yul\":2956:2974   */\n      add\n        /* \"#utility.yul\":2948:2974   */\n      swap1\n      pop\n        /* \"#utility.yul\":3020:3029   */\n      dup2\n        /* \"#utility.yul\":3014:3018   */\n      dup2\n        /* \"#utility.yul\":3010:3030   */\n      sub\n        /* \"#utility.yul\":3006:3007   */\n      0x00\n        /* \"#utility.yul\":2995:3004   */\n      dup4\n        /* \"#utility.yul\":2991:3008   */\n      add\n        /* \"#utility.yul\":2984:3031   */\n      mstore\n        /* \"#utility.yul\":3048:3179   */\n      tag_59\n        /* \"#utility.yul\":3174:3178   */\n      dup2\n        /* \"#utility.yul\":3048:3179   */\n      tag_43\n      jump\t// in\n    tag_59:\n        /* \"#utility.yul\":3040:3179   */\n      swap1\n      pop\n        /* \"#utility.yul\":2767:3186   */\n      swap2\n      swap1\n      pop\n      jump\t// out\n        /* \"#utility.yul\":3273:3420   */\n    tag_51:\n        /* \"#utility.yul\":3374:3385   */\n      0x00\n        /* \"#utility.yul\":3411:3414   */\n      dup2\n        /* \"#utility.yul\":3396:3414   */\n      swap1\n      pop\n        /* \"#utility.yul\":3273:3420   */\n      swap3\n      swap2\n      pop\n      pop\n      jump\t// out\n        /* \"#utility.yul\":3426:3595   */\n    tag_40:\n        /* \"#utility.yul\":3510:3521   */\n      0x00\n        /* \"#utility.yul\":3544:3550   */\n      dup3\n        /* \"#utility.yul\":3539:3542   */\n      dup3\n        /* \"#utility.yul\":3532:3551   */\n      mstore\n        /* \"#utility.yul\":3584:3588   */\n      0x20\n        /* \"#utility.yul\":3579:3582   */\n      dup3\n        /* \"#utility.yul\":3575:3589   */\n      add\n        /* \"#utility.yul\":3560:3589   */\n      swap1\n      pop\n        /* \"#utility.yul\":3426:3595   */\n      swap3\n      swap2\n      pop\n      pop\n      jump\t// out\n        /* \"#utility.yul\":3601:3705   */\n    tag_64:\n        /* \"#utility.yul\":3646:3653   */\n      0x00\n        /* \"#utility.yul\":3675:3699   */\n      tag_66\n        /* \"#utility.yul\":3693:3698   */\n      dup3\n        /* \"#utility.yul\":3675:3699   */\n      tag_67\n      jump\t// in\n    tag_66:\n        /* \"#utility.yul\":3664:3699   */\n      swap1\n      pop\n        /* \"#utility.yul\":3601:3705   */\n      swap2\n      swap1\n      pop\n      jump\t// out\n        /* \"#utility.yul\":3711:3837   */\n    tag_67:\n        /* \"#utility.yul\":3748:3755   */\n      0x00\n        /* \"#utility.yul\":3788:3830   */\n      0xffffffffffffffffffffffffffffffffffffffff\n        /* \"#utility.yul\":3781:3786   */\n      dup3\n        /* \"#utility.yul\":3777:3831   */\n      and\n        /* \"#utility.yul\":3766:3831   */\n      swap1\n      pop\n        /* \"#utility.yul\":3711:3837   */\n      swap2\n      swap1\n      pop\n      jump\t// out\n        /* \"#utility.yul\":3843:3920   */\n    tag_69:\n        /* \"#utility.yul\":3880:3887   */\n      0x00\n        /* \"#utility.yul\":3909:3914   */\n      dup2\n        /* \"#utility.yul\":3898:3914   */\n      swap1\n      pop\n        /* \"#utility.yul\":3843:3920   */\n      swap2\n      swap1\n      pop\n      jump\t// out\n        /* \"#utility.yul\":4049:4166   */\n    tag_34:\n        /* \"#utility.yul\":4158:4159   */\n      0x00\n        /* \"#utility.yul\":4155:4156   */\n      dup1\n        /* \"#utility.yul\":4148:4160   */\n      revert\n        /* \"#utility.yul\":4172:4417   */\n    tag_42:\n        /* \"#utility.yul\":4312:4346   */\n      0x416464726573733a20756e61626c6520746f2073656e642076616c75652c2072\n        /* \"#utility.yul\":4308:4309   */\n      0x00\n        /* \"#utility.yul\":4300:4306   */\n      dup3\n        /* \"#utility.yul\":4296:4310   */\n      add\n        /* \"#utility.yul\":4289:4347   */\n      mstore\n        /* \"#utility.yul\":4381:4409   */\n      0x6563697069656e74206d61792068617665207265766572746564000000000000\n        /* \"#utility.yul\":4376:4378   */\n      0x20\n        /* \"#utility.yul\":4368:4374   */\n      dup3\n        /* \"#utility.yul\":4364:4379   */\n      add\n        /* \"#utility.yul\":4357:4410   */\n      mstore\n        /* \"#utility.yul\":4172:4417   */\n      pop\n      jump\t// out\n        /* \"#utility.yul\":4423:4602   */\n    tag_47:\n        /* \"#utility.yul\":4563:4594   */\n      0x416464726573733a20696e73756666696369656e742062616c616e6365000000\n        /* \"#utility.yul\":4559:4560   */\n      0x00\n        /* \"#utility.yul\":4551:4557   */\n      dup3\n        /* \"#utility.yul\":4547:4561   */\n      add\n        /* \"#utility.yul\":4540:4595   */\n      mstore\n        /* \"#utility.yul\":4423:4602   */\n      pop\n      jump\t// out\n        /* \"#utility.yul\":4608:4722   */\n    tag_53:\n      pop\n      jump\t// out\n        /* \"#utility.yul\":4728:4866   */\n    tag_26:\n        /* \"#utility.yul\":4809:4841   */\n      tag_78\n        /* \"#utility.yul\":4835:4840   */\n      dup2\n        /* \"#utility.yul\":4809:4841   */\n      tag_64\n      jump\t// in\n    tag_78:\n        /* \"#utility.yul\":4802:4807   */\n      dup2\n        /* \"#utility.yul\":4799:4842   */\n      eq\n        /* \"#utility.yul\":4789:4860   */\n      tag_79\n      jumpi\n        /* \"#utility.yul\":4856:4857   */\n      0x00\n        /* \"#utility.yul\":4853:4854   */\n      dup1\n        /* \"#utility.yul\":4846:4858   */\n      revert\n        /* \"#utility.yul\":4789:4860   */\n    tag_79:\n        /* \"#utility.yul\":4728:4866   */\n      pop\n      jump\t// out\n        /* \"#utility.yul\":4872:4994   */\n    tag_30:\n        /* \"#utility.yul\":4945:4969   */\n      tag_81\n        /* \"#utility.yul\":4963:4968   */\n      dup2\n        /* \"#utility.yul\":4945:4969   */\n      tag_69\n      jump\t// in\n    tag_81:\n        /* \"#utility.yul\":4938:4943   */\n      dup2\n        /* \"#utility.yul\":4935:4970   */\n      eq\n        /* \"#utility.yul\":4925:4988   */\n      tag_82\n      jumpi\n        /* \"#utility.yul\":4984:4985   */\n      0x00\n        /* \"#utility.yul\":4981:4982   */\n      dup1\n        /* \"#utility.yul\":4974:4986   */\n      revert\n        /* \"#utility.yul\":4925:4988   */\n    tag_82:\n        /* \"#utility.yul\":4872:4994   */\n      pop\n      jump\t// out\n\n    auxdata: 0xa264697066735822122029679376fef5999dff8928ad6122f341a381a27e16187bc1fcbb99ad68b15ef164736f6c63430008070033\n}\n",
				"bytecode": {
					"linkReferences": {},
					"object": "608060405234801561001057600080fd5b506103a5806100206000396000f3fe60806040526004361061001e5760003560e01c8063d88d144314610023575b600080fd5b61003d6004803603810190610038919061016b565b61003f565b005b610049823461004d565b5050565b80471015610090576040517f08c379a000000000000000000000000000000000000000000000000000000000815260040161008790610249565b60405180910390fd5b60008273ffffffffffffffffffffffffffffffffffffffff16826040516100b690610214565b60006040518083038185875af1925050503d80600081146100f3576040519150601f19603f3d011682016040523d82523d6000602084013e6100f8565b606091505b505090508061013c576040517f08c379a000000000000000000000000000000000000000000000000000000000815260040161013390610229565b60405180910390fd5b505050565b60008135905061015081610341565b92915050565b60008135905061016581610358565b92915050565b60008060408385031215610182576101816102c1565b5b600061019085828601610141565b92505060206101a185828601610156565b9150509250929050565b60006101b8603a83610274565b91506101c3826102c6565b604082019050919050565b60006101db601d83610274565b91506101e682610315565b602082019050919050565b60006101fe600083610269565b91506102098261033e565b600082019050919050565b600061021f826101f1565b9150819050919050565b60006020820190508181036000830152610242816101ab565b9050919050565b60006020820190508181036000830152610262816101ce565b9050919050565b600081905092915050565b600082825260208201905092915050565b600061029082610297565b9050919050565b600073ffffffffffffffffffffffffffffffffffffffff82169050919050565b6000819050919050565b600080fd5b7f416464726573733a20756e61626c6520746f2073656e642076616c75652c207260008201527f6563697069656e74206d61792068617665207265766572746564000000000000602082015250565b7f416464726573733a20696e73756666696369656e742062616c616e6365000000600082015250565b50565b61034a81610285565b811461035557600080fd5b50565b610361816102b7565b811461036c57600080fd5b5056fea264697066735822122029679376fef5999dff8928ad6122f341a381a27e16187bc1fcbb99ad68b15ef164736f6c63430008070033",
					"opcodes": "PUSH1 0x80 PUSH1 0x40 MSTORE CALLVALUE DUP1 ISZERO PUSH2 0x10 JUMPI PUSH1 0x0 DUP1 REVERT JUMPDEST POP PUSH2 0x3A5 DUP1 PUSH2 0x20 PUSH1 0x0 CODECOPY PUSH1 0x0 RETURN INVALID PUSH1 0x80 PUSH1 0x40 MSTORE PUSH1 0x4 CALLDATASIZE LT PUSH2 0x1E JUMPI PUSH1 0x0 CALLDATALOAD PUSH1 0xE0 SHR DUP1 PUSH4 0xD88D1443 EQ PUSH2 0x23 JUMPI JUMPDEST PUSH1 0x0 DUP1 REVERT JUMPDEST PUSH2 0x3D PUSH1 0x4 DUP1 CALLDATASIZE SUB DUP2 ADD SWAP1 PUSH2 0x38 SWAP2 SWAP1 PUSH2 0x16B JUMP JUMPDEST PUSH2 0x3F JUMP JUMPDEST STOP JUMPDEST PUSH2 0x49 DUP3 CALLVALUE PUSH2 0x4D JUMP JUMPDEST POP POP JUMP JUMPDEST DUP1 SELFBALANCE LT ISZERO PUSH2 0x90 JUMPI PUSH1 0x40 MLOAD PUSH32 0x8C379A000000000000000000000000000000000000000000000000000000000 DUP2 MSTORE PUSH1 0x4 ADD PUSH2 0x87 SWAP1 PUSH2 0x249 JUMP JUMPDEST PUSH1 0x40 MLOAD DUP1 SWAP2 SUB SWAP1 REVERT JUMPDEST PUSH1 0x0 DUP3 PUSH20 0xFFFFFFFFFFFFFFFFFFFFFFFFFFFFFFFFFFFFFFFF AND DUP3 PUSH1 0x40 MLOAD PUSH2 0xB6 SWAP1 PUSH2 0x214 JUMP JUMPDEST PUSH1 0x0 PUSH1 0x40 MLOAD DUP1 DUP4 SUB DUP2 DUP6 DUP8 GAS CALL SWAP3 POP POP POP RETURNDATASIZE DUP1 PUSH1 0x0 DUP2 EQ PUSH2 0xF3 JUMPI PUSH1 0x40 MLOAD SWAP2 POP PUSH1 0x1F NOT PUSH1 0x3F RETURNDATASIZE ADD AND DUP3 ADD PUSH1 0x40 MSTORE RETURNDATASIZE DUP3 MSTORE RETURNDATASIZE PUSH1 0x0 PUSH1 0x20 DUP5 ADD RETURNDATACOPY PUSH2 0xF8 JUMP JUMPDEST PUSH1 0x60 SWAP2 POP JUMPDEST POP POP SWAP1 POP DUP1 PUSH2 0x13C JUMPI PUSH1 0x40 MLOAD PUSH32 0x8C379A000000000000000000000000000000000000000000000000000000000 DUP2 MSTORE PUSH1 0x4 ADD PUSH2 0x133 SWAP1 PUSH2 0x229 JUMP JUMPDEST PUSH1 0x40 MLOAD DUP1 SWAP2 SUB SWAP1 REVERT JUMPDEST POP POP POP JUMP JUMPDEST PUSH1 0x0 DUP2 CALLDATALOAD SWAP1 POP PUSH2 0x150 DUP2 PUSH2 0x341 JUMP JUMPDEST SWAP3 SWAP2 POP POP JUMP JUMPDEST PUSH1 0x0 DUP2 CALLDATALOAD SWAP1 POP PUSH2 0x165 DUP2 PUSH2 0x358 JUMP JUMPDEST SWAP3 SWAP2 POP POP JUMP JUMPDEST PUSH1 0x0 DUP1 PUSH1 0x40 DUP4 DUP6 SUB SLT ISZERO PUSH2 0x182 JUMPI PUSH2 0x181 PUSH2 0x2C1 JUMP JUMPDEST JUMPDEST PUSH1 0x0 PUSH2 0x190 DUP6 DUP3 DUP7 ADD PUSH2 0x141 JUMP JUMPDEST SWAP3 POP POP PUSH1 0x20 PUSH2 0x1A1 DUP6 DUP3 DUP7 ADD PUSH2 0x156 JUMP JUMPDEST SWAP2 POP POP SWAP3 POP SWAP3 SWAP1 POP JUMP JUMPDEST PUSH1 0x0 PUSH2 0x1B8 PUSH1 0x3A DUP4 PUSH2 0x274 JUMP JUMPDEST SWAP2 POP PUSH2 0x1C3 DUP3 PUSH2 0x2C6 JUMP JUMPDEST PUSH1 0x40 DUP3 ADD SWAP1 POP SWAP2 SWAP1 POP JUMP JUMPDEST PUSH1 0x0 PUSH2 0x1DB PUSH1 0x1D DUP4 PUSH2 0x274 JUMP JUMPDEST SWAP2 POP PUSH2 0x1E6 DUP3 PUSH2 0x315 JUMP JUMPDEST PUSH1 0x20 DUP3 ADD SWAP1 POP SWAP2 SWAP1 POP JUMP JUMPDEST PUSH1 0x0 PUSH2 0x1FE PUSH1 0x0 DUP4 PUSH2 0x269 JUMP JUMPDEST SWAP2 POP PUSH2 0x209 DUP3 PUSH2 0x33E JUMP JUMPDEST PUSH1 0x0 DUP3 ADD SWAP1 POP SWAP2 SWAP1 POP JUMP JUMPDEST PUSH1 0x0 PUSH2 0x21F DUP3 PUSH2 0x1F1 JUMP JUMPDEST SWAP2 POP DUP2 SWAP1 POP SWAP2 SWAP1 POP JUMP JUMPDEST PUSH1 0x0 PUSH1 0x20 DUP3 ADD SWAP1 POP DUP2 DUP2 SUB PUSH1 0x0 DUP4 ADD MSTORE PUSH2 0x242 DUP2 PUSH2 0x1AB JUMP JUMPDEST SWAP1 POP SWAP2 SWAP1 POP JUMP JUMPDEST PUSH1 0x0 PUSH1 0x20 DUP3 ADD SWAP1 POP DUP2 DUP2 SUB PUSH1 0x0 DUP4 ADD MSTORE PUSH2 0x262 DUP2 PUSH2 0x1CE JUMP JUMPDEST SWAP1 POP SWAP2 SWAP1 POP JUMP JUMPDEST PUSH1 0x0 DUP2 SWAP1 POP SWAP3 SWAP2 POP POP JUMP JUMPDEST PUSH1 0x0 DUP3 DUP3 MSTORE PUSH1 0x20 DUP3 ADD SWAP1 POP SWAP3 SWAP2 POP POP JUMP JUMPDEST PUSH1 0x0 PUSH2 0x290 DUP3 PUSH2 0x297 JUMP JUMPDEST SWAP1 POP SWAP2 SWAP1 POP JUMP JUMPDEST PUSH1 0x0 PUSH20 0xFFFFFFFFFFFFFFFFFFFFFFFFFFFFFFFFFFFFFFFF DUP3 AND SWAP1 POP SWAP2 SWAP1 POP JUMP JUMPDEST PUSH1 0x0 DUP2 SWAP1 POP SWAP2 SWAP1 POP JUMP JUMPDEST PUSH1 0x0 DUP1 REVERT JUMPDEST PUSH32 0x416464726573733A20756E61626C6520746F2073656E642076616C75652C2072 PUSH1 0x0 DUP3 ADD MSTORE PUSH32 0x6563697069656E74206D61792068617665207265766572746564000000000000 PUSH1 0x20 DUP3 ADD MSTORE POP JUMP JUMPDEST PUSH32 0x416464726573733A20696E73756666696369656E742062616C616E6365000000 PUSH1 0x0 DUP3 ADD MSTORE POP JUMP JUMPDEST POP JUMP JUMPDEST PUSH2 0x34A DUP2 PUSH2 0x285 JUMP JUMPDEST DUP2 EQ PUSH2 0x355 JUMPI PUSH1 0x0 DUP1 REVERT JUMPDEST POP JUMP JUMPDEST PUSH2 0x361 DUP2 PUSH2 0x2B7 JUMP JUMPDEST DUP2 EQ PUSH2 0x36C JUMPI PUSH1 0x0 DUP1 REVERT JUMPDEST POP JUMP INVALID LOG2 PUSH5 0x6970667358 0x22 SLT KECCAK256 0x29 PUSH8 0x9376FEF5999DFF89 0x28 0xAD PUSH2 0x22F3 COINBASE LOG3 DUP2 LOG2 PUSH31 0x16187BC1FCBB99AD68B15EF164736F6C634300080700330000000000000000 "
				},
				"gasEstimates": {
					"creation": {
						"codeDepositCost": "186600",
						"executionCost": "232",
						"totalCost": "186832"
					},
					"external": {
						"SendValue(address,uint256)": "infinite"
					},
					"internal": {
						"_revert(bytes memory,string memory)": "infinite",
						"functionCallWithValue(address,bytes memory,uint256,string memory)": "infinite",
						"isContract(address)": "infinite",
						"sendValue(address payable,uint256)": "infinite",
						"verifyCallResultFromTarget(address,bool,bytes memory,string memory)": "infinite"
					}
				},
				"methodIdentifiers": {
					"SendValue(address,uint256)": "d88d1443"
				}
			},
			"storageLayout": {
				"storage": [],
				"types": null
			},
			"userdoc": {
				"kind": "user",
				"methods": {},
				"version": 1
			}
		}
	}
}